{
  "_format": "hh3-artifact-1",
  "contractName": "Presale",
  "sourceName": "contracts/Presale.sol",
  "abi": [
    {
      "inputs": [
        {
          "internalType": "address",
          "name": "owner_",
          "type": "address"
        },
        {
          "internalType": "address",
          "name": "token_",
          "type": "address"
        },
        {
          "internalType": "address[]",
          "name": "initialQuoteTokens_",
          "type": "address[]"
        },
        {
          "internalType": "address payable",
          "name": "fundsRecipient_",
          "type": "address"
        },
        {
          "internalType": "uint256",
          "name": "totalForSale_",
          "type": "uint256"
        },
        {
          "internalType": "uint256",
          "name": "basePriceQuotePerToken_",
          "type": "uint256"
        },
        {
          "internalType": "uint256",
          "name": "priceIncrementPerPhaseQuote_",
          "type": "uint256"
        },
        {
          "internalType": "uint256",
          "name": "perPhaseAllocation_",
          "type": "uint256"
        },
        {
          "internalType": "bool",
          "name": "ethEnabled_",
          "type": "bool"
        }
      ],
      "stateMutability": "nonpayable",
      "type": "constructor"
    },
    {
      "inputs": [],
      "name": "AlreadyExtended",
      "type": "error"
    },
    {
      "inputs": [],
      "name": "InvalidConfig",
      "type": "error"
    },
    {
      "inputs": [],
      "name": "NothingToWithdraw",
      "type": "error"
    },
    {
      "inputs": [
        {
          "internalType": "address",
          "name": "owner",
          "type": "address"
        }
      ],
      "name": "OwnableInvalidOwner",
      "type": "error"
    },
    {
      "inputs": [
        {
          "internalType": "address",
          "name": "account",
          "type": "address"
        }
      ],
      "name": "OwnableUnauthorizedAccount",
      "type": "error"
    },
    {
      "inputs": [],
      "name": "ReentrancyGuardReentrantCall",
      "type": "error"
    },
    {
      "inputs": [
        {
          "internalType": "address",
          "name": "token",
          "type": "address"
        }
      ],
      "name": "SafeERC20FailedOperation",
      "type": "error"
    },
    {
      "inputs": [],
      "name": "SaleNotActive",
      "type": "error"
    },
    {
      "inputs": [],
      "name": "ZeroAddress",
      "type": "error"
    },
    {
      "anonymous": false,
      "inputs": [
        {
          "indexed": false,
          "internalType": "uint256",
          "name": "newSaleEnd",
          "type": "uint256"
        }
      ],
      "name": "Extended",
      "type": "event"
    },
    {
      "anonymous": false,
      "inputs": [
        {
          "indexed": true,
          "internalType": "address",
          "name": "previousOwner",
          "type": "address"
        },
        {
          "indexed": true,
          "internalType": "address",
          "name": "newOwner",
          "type": "address"
        }
      ],
      "name": "OwnershipTransferred",
      "type": "event"
    },
    {
      "anonymous": false,
      "inputs": [
        {
          "indexed": true,
          "internalType": "address",
          "name": "buyer",
          "type": "address"
        },
        {
          "indexed": false,
          "internalType": "uint256",
          "name": "ethSpent",
          "type": "uint256"
        },
        {
          "indexed": false,
          "internalType": "uint256",
          "name": "tokensBought",
          "type": "uint256"
        }
      ],
      "name": "PurchasedETH",
      "type": "event"
    },
    {
      "anonymous": false,
      "inputs": [
        {
          "indexed": true,
          "internalType": "address",
          "name": "buyer",
          "type": "address"
        },
        {
          "indexed": true,
          "internalType": "address",
          "name": "quote",
          "type": "address"
        },
        {
          "indexed": false,
          "internalType": "uint256",
          "name": "quoteSpent",
          "type": "uint256"
        },
        {
          "indexed": false,
          "internalType": "uint256",
          "name": "tokensBought",
          "type": "uint256"
        }
      ],
      "name": "PurchasedQuote",
      "type": "event"
    },
    {
      "anonymous": false,
      "inputs": [
        {
          "indexed": false,
          "internalType": "uint256",
          "name": "amount",
          "type": "uint256"
        }
      ],
      "name": "WithdrawnETH",
      "type": "event"
    },
    {
      "anonymous": false,
      "inputs": [
        {
          "indexed": true,
          "internalType": "address",
          "name": "to",
          "type": "address"
        },
        {
          "indexed": false,
          "internalType": "uint256",
          "name": "amount",
          "type": "uint256"
        }
      ],
      "name": "WithdrawnUnsold",
      "type": "event"
    },
    {
      "inputs": [],
      "name": "NUM_PHASES",
      "outputs": [
        {
          "internalType": "uint256",
          "name": "",
          "type": "uint256"
        }
      ],
      "stateMutability": "view",
      "type": "function"
    },
    {
      "inputs": [
        {
          "internalType": "address",
          "name": "",
          "type": "address"
        }
      ],
      "name": "acceptedQuoteTokens",
      "outputs": [
        {
          "internalType": "bool",
          "name": "",
          "type": "bool"
        }
      ],
      "stateMutability": "view",
      "type": "function"
    },
    {
      "inputs": [
        {
          "internalType": "address",
          "name": "tokenAddr",
          "type": "address"
        }
      ],
      "name": "addQuoteToken",
      "outputs": [],
      "stateMutability": "nonpayable",
      "type": "function"
    },
    {
      "inputs": [],
      "name": "buyWithETH",
      "outputs": [],
      "stateMutability": "payable",
      "type": "function"
    },
    {
      "inputs": [
        {
          "internalType": "address",
          "name": "quoteTokenAddr",
          "type": "address"
        },
        {
          "internalType": "uint256",
          "name": "maxQuoteAmount",
          "type": "uint256"
        }
      ],
      "name": "buyWithQuote",
      "outputs": [],
      "stateMutability": "nonpayable",
      "type": "function"
    },
    {
      "inputs": [],
      "name": "currentPhaseIndex",
      "outputs": [
        {
          "internalType": "uint256",
          "name": "index",
          "type": "uint256"
        }
      ],
      "stateMutability": "view",
      "type": "function"
    },
    {
      "inputs": [
        {
          "internalType": "uint256",
          "name": "amount",
          "type": "uint256"
        }
      ],
      "name": "depositTokens",
      "outputs": [],
      "stateMutability": "nonpayable",
      "type": "function"
    },
    {
      "inputs": [],
      "name": "ethEnabled",
      "outputs": [
        {
          "internalType": "bool",
          "name": "",
          "type": "bool"
        }
      ],
      "stateMutability": "view",
      "type": "function"
    },
    {
      "inputs": [],
      "name": "extendOnce",
      "outputs": [],
      "stateMutability": "nonpayable",
      "type": "function"
    },
    {
      "inputs": [],
      "name": "extended",
      "outputs": [
        {
          "internalType": "bool",
          "name": "",
          "type": "bool"
        }
      ],
      "stateMutability": "view",
      "type": "function"
    },
    {
      "inputs": [],
      "name": "fundsRecipient",
      "outputs": [
        {
          "internalType": "address payable",
          "name": "",
          "type": "address"
        }
      ],
      "stateMutability": "view",
      "type": "function"
    },
    {
      "inputs": [
        {
          "internalType": "uint256",
          "name": "index",
          "type": "uint256"
        }
      ],
      "name": "getPhase",
      "outputs": [
        {
          "components": [
            {
              "internalType": "uint256",
              "name": "priceWeiPerToken",
              "type": "uint256"
            },
            {
              "internalType": "uint256",
              "name": "allocation",
              "type": "uint256"
            },
            {
              "internalType": "uint256",
              "name": "sold",
              "type": "uint256"
            }
          ],
          "internalType": "struct Presale.Phase",
          "name": "",
          "type": "tuple"
        }
      ],
      "stateMutability": "view",
      "type": "function"
    },
    {
      "inputs": [],
      "name": "isActive",
      "outputs": [
        {
          "internalType": "bool",
          "name": "",
          "type": "bool"
        }
      ],
      "stateMutability": "view",
      "type": "function"
    },
    {
      "inputs": [],
      "name": "owner",
      "outputs": [
        {
          "internalType": "address",
          "name": "",
          "type": "address"
        }
      ],
      "stateMutability": "view",
      "type": "function"
    },
    {
      "inputs": [
        {
          "internalType": "address",
          "name": "tokenAddr",
          "type": "address"
        }
      ],
      "name": "removeQuoteToken",
      "outputs": [],
      "stateMutability": "nonpayable",
      "type": "function"
    },
    {
      "inputs": [],
      "name": "renounceOwnership",
      "outputs": [],
      "stateMutability": "nonpayable",
      "type": "function"
    },
    {
      "inputs": [],
      "name": "saleEnd",
      "outputs": [
        {
          "internalType": "uint256",
          "name": "",
          "type": "uint256"
        }
      ],
      "stateMutability": "view",
      "type": "function"
    },
    {
      "inputs": [],
      "name": "saleEndInitial",
      "outputs": [
        {
          "internalType": "uint256",
          "name": "",
          "type": "uint256"
        }
      ],
      "stateMutability": "view",
      "type": "function"
    },
    {
      "inputs": [],
      "name": "saleStart",
      "outputs": [
        {
          "internalType": "uint256",
          "name": "",
          "type": "uint256"
        }
      ],
      "stateMutability": "view",
      "type": "function"
    },
    {
      "inputs": [
        {
          "internalType": "bool",
          "name": "enabled",
          "type": "bool"
        }
      ],
      "name": "setEthEnabled",
      "outputs": [],
      "stateMutability": "nonpayable",
      "type": "function"
    },
    {
      "inputs": [],
      "name": "token",
      "outputs": [
        {
          "internalType": "contract IERC20",
          "name": "",
          "type": "address"
        }
      ],
      "stateMutability": "view",
      "type": "function"
    },
    {
      "inputs": [],
      "name": "totalForSale",
      "outputs": [
        {
          "internalType": "uint256",
          "name": "",
          "type": "uint256"
        }
      ],
      "stateMutability": "view",
      "type": "function"
    },
    {
      "inputs": [],
      "name": "totalSold",
      "outputs": [
        {
          "internalType": "uint256",
          "name": "sold",
          "type": "uint256"
        }
      ],
      "stateMutability": "view",
      "type": "function"
    },
    {
      "inputs": [
        {
          "internalType": "address",
          "name": "newOwner",
          "type": "address"
        }
      ],
      "name": "transferOwnership",
      "outputs": [],
      "stateMutability": "nonpayable",
      "type": "function"
    },
    {
      "inputs": [
        {
          "internalType": "uint256",
          "name": "amount",
          "type": "uint256"
        }
      ],
      "name": "withdrawETH",
      "outputs": [],
      "stateMutability": "nonpayable",
      "type": "function"
    },
    {
      "inputs": [
        {
          "internalType": "address",
          "name": "to",
          "type": "address"
        }
      ],
      "name": "withdrawUnsold",
      "outputs": [],
      "stateMutability": "nonpayable",
      "type": "function"
    },
    {
      "stateMutability": "payable",
      "type": "receive"
    }
  ],
  "bytecode": "0x610120604052348015610010575f5ffd5b50604051611bc6380380611bc683398101604081905261002f916102d7565b886001600160a01b03811661005d57604051631e4fbdf760e01b81525f600482015260240160405180910390fd5b6100668161023e565b50600180556001600160a01b038816158061008857506001600160a01b038616155b156100a65760405163d92e233d60e01b815260040160405180910390fd5b8415806100b1575083155b156100cf576040516306b7c75960e31b815260040160405180910390fd5b6001600160a01b03808916608052861660a0524260c08190526100f5906276a700610424565b60e08190526003556101008590525f8215610110578261011b565b61011b600a8761043d565b90505f5b600a81101561019b576040518060600160405280828761013f919061045c565b6101499089610424565b81526020018381526020015f815250600582600a811061016b5761016b610473565b600302015f820151815f01556020820151816001015560408201518160020155905050808060010191505061011f565b506023805460ff19168315151790555f5b885181101561022e575f8982815181106101c8576101c8610473565b602002602001015190505f6001600160a01b0316816001600160a01b0316036102045760405163d92e233d60e01b815260040160405180910390fd5b6001600160a01b03165f908152600260205260409020805460ff19166001908117909155016101ac565b5050505050505050505050610487565b5f80546001600160a01b038381166001600160a01b0319831681178455604051919092169283917f8be0079c531659141344cd1fd0a4f28419497f9722a3daafe3b4186f6b6457e09190a35050565b6001600160a01b03811681146102a1575f5ffd5b50565b80516102af8161028d565b919050565b634e487b7160e01b5f52604160045260245ffd5b805180151581146102af575f5ffd5b5f5f5f5f5f5f5f5f5f6101208a8c0312156102f0575f5ffd5b89516102fb8161028d565b60208b015190995061030c8161028d565b60408b01519098506001600160401b03811115610327575f5ffd5b8a01601f81018c13610337575f5ffd5b80516001600160401b03811115610350576103506102b4565b604051600582901b90603f8201601f191681016001600160401b038111828210171561037e5761037e6102b4565b60405291825260208184018101929081018f84111561039b575f5ffd5b6020850194505b838510156103c1576103b3856102a4565b8152602094850194016103a2565b5099506103d49250505060608b016102a4565b60808b015160a08c015160c08d015160e08e01519399509197509550935091506104016101008b016102c8565b90509295985092959850929598565b634e487b7160e01b5f52601160045260245ffd5b8082018082111561043757610437610410565b92915050565b5f8261045757634e487b7160e01b5f52601260045260245ffd5b500490565b808202811582820484141761043757610437610410565b634e487b7160e01b5f52603260045260245ffd5b60805160a05160c05160e051610100516116926105345f395f81816103c00152818161067c015281816106b10152818161074001528181610b8c01528181610bc101528181610c5b0152610e5b01525f61021601525f81816104070152610e2201525f81816102cb0152818161081d01528181610d0b015261121801525f8181610531015281816107e001528181610da101528181610fcf0152818161106f01526111ba01526116925ff3fe60806040526004361061017e575f3560e01c80638eaefd3a116100cd578063d5beb11211610087578063eb9f1b1d11610062578063eb9f1b1d146104ce578063f14210a6146104e2578063f2fde38b14610501578063fc0c546a14610520575f5ffd5b8063d5beb1121461047c578063d798a07914610490578063dd49756e146104af575f5ffd5b80638eaefd3a146103af5780639106d7ba146103e2578063ab0bcc41146103f6578063bb03a1aa14610429578063c10b935814610448578063c9f6b5271461045d575f5ffd5b80633b6fd2cf11610138578063700a311c11610113578063700a311c1461033d578063715018a614610351578063722b61b3146103655780638da5cb5b14610393575f5ffd5b80633b6fd2cf146102ba57806357581511146103055780636f3921ee14610324575f5ffd5b80630d99ede9146101d757806314c9658b14610205578063150d283d146101c957806316ef376b146102465780631effda411461028757806322f3e2d4146102a6575f5ffd5b366101d35760235460ff166101c95760405162461bcd60e51b815260206004820152600c60248201526b11551208191a5cd8589b195960a21b60448201526064015b60405180910390fd5b6101d1610553565b005b5f5ffd5b3480156101e2575f5ffd5b506023546101f09060ff1681565b60405190151581526020015b60405180910390f35b348015610210575f5ffd5b506102387f000000000000000000000000000000000000000000000000000000000000000081565b6040519081526020016101fc565b348015610251575f5ffd5b5061026561026036600461150a565b6109a2565b60408051825181526020808401519082015291810151908201526060016101fc565b348015610292575f5ffd5b506101d16102a136600461153c565b610a45565b3480156102b1575f5ffd5b506101f0610e1f565b3480156102c5575f5ffd5b506102ed7f000000000000000000000000000000000000000000000000000000000000000081565b6040516001600160a01b0390911681526020016101fc565b348015610310575f5ffd5b506101d161031f366004611564565b610e89565b34801561032f575f5ffd5b506004546101f09060ff1681565b348015610348575f5ffd5b50610238610edb565b34801561035c575f5ffd5b506101d1610f3d565b348015610370575f5ffd5b506101f061037f366004611564565b60026020525f908152604090205460ff1681565b34801561039e575f5ffd5b505f546001600160a01b03166102ed565b3480156103ba575f5ffd5b506102387f000000000000000000000000000000000000000000000000000000000000000081565b3480156103ed575f5ffd5b50610238610f4e565b348015610401575f5ffd5b506102387f000000000000000000000000000000000000000000000000000000000000000081565b348015610434575f5ffd5b506101d1610443366004611564565b610f8e565b348015610453575f5ffd5b5061023860035481565b348015610468575f5ffd5b506101d1610477366004611564565b6110dd565b348015610487575f5ffd5b506101d1611105565b34801561049b575f5ffd5b506101d16104aa366004611584565b611192565b3480156104ba575f5ffd5b506101d16104c936600461150a565b6111ad565b3480156104d9575f5ffd5b50610238600a81565b3480156104ed575f5ffd5b506101d16104fc36600461150a565b6111ed565b34801561050c575f5ffd5b506101d161051b366004611564565b6112fd565b34801561052b575f5ffd5b506102ed7f000000000000000000000000000000000000000000000000000000000000000081565b61055b611337565b60235460ff1661057e576040516306b7c75960e31b815260040160405180910390fd5b610586610e1f565b6105a35760405163b7b2409760e01b815260040160405180910390fd5b345f036105c3576040516306b7c75960e31b815260040160405180910390fd5b345f806105ce610edb565b90505b600a811080156105e057505f83115b15610790575f600582600a81106105f9576105f96115a3565b6003020190508060010154816002015410610614575061077e565b5f8160020154826001015461062991906115cb565b82549091505f9061064287670de0b6b3a76400006115e4565b61064c91906115fb565b9050805f0361065d57505050610790565b5f82821061066b578261066d565b815b90505f610678610f4e565b90507f00000000000000000000000000000000000000000000000000000000000000006106a5838361161a565b11156106d8576106d5817f00000000000000000000000000000000000000000000000000000000000000006115cb565b91505b815f036106e9575050505050610790565b84545f90670de0b6b3a76400009061070190856115e4565b61070b91906115fb565b905082866002015f828254610720919061161a565b909155506107309050838961161a565b975061073c818a6115cb565b98507f0000000000000000000000000000000000000000000000000000000000000000610767610f4e565b1061077757505050505050610790565b5050505050505b806107888161162d565b9150506105d1565b505f81116107d35760405162461bcd60e51b815260206004820152601060248201526f0d2dce6eaccccd2c6d2cadce8408aa8960831b60448201526064016101c0565b6108076001600160a01b037f0000000000000000000000000000000000000000000000000000000000000000163383611361565b5f61081283346115cb565b905080156108cc575f7f00000000000000000000000000000000000000000000000000000000000000006001600160a01b0316826040515f6040518083038185875af1925050503d805f8114610883576040519150601f19603f3d011682016040523d82523d5f602084013e610888565b606091505b50509050806108ca5760405162461bcd60e51b815260206004820152600e60248201526d199bdc9dd85c990819985a5b195960921b60448201526064016101c0565b505b8215610959576040515f90339085908381818185875af1925050503d805f8114610911576040519150601f19603f3d011682016040523d82523d5f602084013e610916565b606091505b50509050806109575760405162461bcd60e51b815260206004820152600d60248201526c1c99599d5b990819985a5b1959609a1b60448201526064016101c0565b505b604080518281526020810184905233917ffe808ddd58d46a1c39c7093c6dba1652c0fb95c79733d4497e079c131a6876d6910160405180910390a25050506109a060018055565b565b6109c360405180606001604052805f81526020015f81526020015f81525090565b600a82106109ff5760405162461bcd60e51b815260206004820152600960248201526862616420706861736560b81b60448201526064016101c0565b600582600a8110610a1257610a126115a3565b600302016040518060600160405290815f8201548152602001600182015481526020016002820154815250509050919050565b610a4d611337565b610a55610e1f565b610a725760405163b7b2409760e01b815260040160405180910390fd5b805f03610a92576040516306b7c75960e31b815260040160405180910390fd5b6001600160a01b0382165f9081526002602052604090205460ff16610aca576040516306b7c75960e31b815260040160405180910390fd5b805f80610ad56114eb565b5f610ade610edb565b90505b600a81108015610af057505f85115b15610cb6575f600582600a8110610b0957610b096115a3565b6003020190508060010154816002015410610b245750610ca4565b5f81600201548260010154610b3991906115cb565b82549091505f90610b5289670de0b6b3a76400006115e4565b610b5c91906115fb565b9050805f03610b6d57505050610cb6565b5f828210610b7b5782610b7d565b815b90505f610b88610f4e565b90507f0000000000000000000000000000000000000000000000000000000000000000610bb5838361161a565b1115610be857610be5817f00000000000000000000000000000000000000000000000000000000000000006115cb565b91505b815f03610bf9575050505050610cb6565b84545f90670de0b6b3a764000090610c1190856115e4565b610c1b91906115fb565b9050828888600a8110610c3057610c306115a3565b6020020152610c3f838b61161a565b9950610c4b818a61161a565b9850610c57818c6115cb565b9a507f00000000000000000000000000000000000000000000000000000000000000008a610c83610f4e565b610c8d919061161a565b10610c9d57505050505050610cb6565b5050505050505b80610cae8161162d565b915050610ae1565b505f8311610cfb5760405162461bcd60e51b8152602060048201526012602482015271696e73756666696369656e742066756e647360701b60448201526064016101c0565b610d306001600160a01b038716337f0000000000000000000000000000000000000000000000000000000000000000856113c5565b5f5b600a811015610d93575f8282600a8110610d4e57610d4e6115a3565b602002015190508015610d8a5780600583600a8110610d6f57610d6f6115a3565b600302016002015f828254610d84919061161a565b90915550505b50600101610d32565b50610dc86001600160a01b037f0000000000000000000000000000000000000000000000000000000000000000163385611361565b60408051838152602081018590526001600160a01b0388169133917f1f5c8bb52696fdaa3321095cdb4c68b4a717ffebe9a396b379c89cf35259f7cd910160405180910390a350505050610e1b60018055565b5050565b5f7f00000000000000000000000000000000000000000000000000000000000000004210158015610e5257506003544211155b8015610e8457507f0000000000000000000000000000000000000000000000000000000000000000610e82610f4e565b105b905090565b610e91611404565b6001600160a01b038116610eb85760405163d92e233d60e01b815260040160405180910390fd5b6001600160a01b03165f908152600260205260409020805460ff19166001179055565b5f805b600a811015610f3057600581600a8110610efa57610efa6115a3565b6003020160010154600582600a8110610f1557610f156115a3565b60030201600201541015610f2857919050565b600101610ede565b50610e846001600a6115cb565b610f45611404565b6109a05f611430565b5f805b600a811015610f8a57600581600a8110610f6d57610f6d6115a3565b600302016002015482610f80919061161a565b9150600101610f51565b5090565b610f96611404565b6003544211610fb85760405163b7b2409760e01b815260040160405180910390fd5b6040516370a0823160e01b81523060048201525f907f00000000000000000000000000000000000000000000000000000000000000006001600160a01b0316906370a0823190602401602060405180830381865afa15801561101c573d5f5f3e3d5ffd5b505050506040513d601f19601f820116820180604052508101906110409190611645565b9050805f0361106257604051630686827b60e51b815260040160405180910390fd5b6110966001600160a01b037f0000000000000000000000000000000000000000000000000000000000000000168383611361565b816001600160a01b03167f22a65e09c425ef9809e441d1533fe086064a9cd3ad86f1c0402da21baec532a8826040516110d191815260200190565b60405180910390a25050565b6110e5611404565b6001600160a01b03165f908152600260205260409020805460ff19169055565b61110d611404565b60045460ff16156111315760405163c8aded6560e01b815260040160405180910390fd5b6004805460ff191660011790556003805462278d0091905f9061115590849061161a565b90915550506003546040519081527f1c73e1d0cd5dc5067743dac22cf396dbbdde644cc51e2af8e0142666c67b29a99060200160405180910390a1565b61119a611404565b6023805460ff1916911515919091179055565b6111b5611404565b6111ea7f00000000000000000000000000000000000000000000000000000000000000006001600160a01b03163330846113c5565b50565b6111f5611404565b805f0361121557604051630686827b60e51b815260040160405180910390fd5b5f7f00000000000000000000000000000000000000000000000000000000000000006001600160a01b0316826040515f6040518083038185875af1925050503d805f811461127e576040519150601f19603f3d011682016040523d82523d5f602084013e611283565b606091505b50509050806112c65760405162461bcd60e51b815260206004820152600f60248201526e1dda5d1a191c985dc819985a5b1959608a1b60448201526064016101c0565b6040518281527f2b668fe7735bb2e3a96d23624e49dfee6de52d535a9a9a61d31ac109673b52799060200160405180910390a15050565b611305611404565b6001600160a01b03811661132e57604051631e4fbdf760e01b81525f60048201526024016101c0565b6111ea81611430565b60026001540361135a57604051633ee5aeb560e01b815260040160405180910390fd5b6002600155565b6040516001600160a01b038381166024830152604482018390526113c091859182169063a9059cbb906064015b604051602081830303815290604052915060e01b6020820180516001600160e01b03838183161783525050505061147f565b505050565b6040516001600160a01b0384811660248301528381166044830152606482018390526113fe9186918216906323b872dd9060840161138e565b50505050565b5f546001600160a01b031633146109a05760405163118cdaa760e01b81523360048201526024016101c0565b5f80546001600160a01b038381166001600160a01b0319831681178455604051919092169283917f8be0079c531659141344cd1fd0a4f28419497f9722a3daafe3b4186f6b6457e09190a35050565b5f5f60205f8451602086015f885af18061149e576040513d5f823e3d81fd5b50505f513d915081156114b55780600114156114c2565b6001600160a01b0384163b155b156113fe57604051635274afe760e01b81526001600160a01b03851660048201526024016101c0565b604051806101400160405280600a906020820280368337509192915050565b5f6020828403121561151a575f5ffd5b5035919050565b80356001600160a01b0381168114611537575f5ffd5b919050565b5f5f6040838503121561154d575f5ffd5b61155683611521565b946020939093013593505050565b5f60208284031215611574575f5ffd5b61157d82611521565b9392505050565b5f60208284031215611594575f5ffd5b8135801515811461157d575f5ffd5b634e487b7160e01b5f52603260045260245ffd5b634e487b7160e01b5f52601160045260245ffd5b818103818111156115de576115de6115b7565b92915050565b80820281158282048414176115de576115de6115b7565b5f8261161557634e487b7160e01b5f52601260045260245ffd5b500490565b808201808211156115de576115de6115b7565b5f6001820161163e5761163e6115b7565b5060010190565b5f60208284031215611655575f5ffd5b505191905056fea26469706673582212208d005cbb0b5e43f2a36567443d67f5cf78ee9e0c064220c5097dfa4ea50062ea64736f6c634300081c0033",
  "linkReferences": {},
  "deployedLinkReferences": {},
  "immutableReferences": {
    "928": [
      {
        "length": 32,
        "start": 1329
      },
      {
        "length": 32,
        "start": 2016
      },
      {
        "length": 32,
        "start": 3489
      },
      {
        "length": 32,
        "start": 4047
      },
      {
        "length": 32,
        "start": 4207
      },
      {
        "length": 32,
        "start": 4538
      }
    ],
    "934": [
      {
        "length": 32,
        "start": 715
      },
      {
        "length": 32,
        "start": 2077
      },
      {
        "length": 32,
        "start": 3339
      },
      {
        "length": 32,
        "start": 4632
      }
    ],
    "936": [
      {
        "length": 32,
        "start": 1031
      },
      {
        "length": 32,
        "start": 3618
      }
    ],
    "938": [
      {
        "length": 32,
        "start": 534
      }
    ],
    "944": [
      {
        "length": 32,
        "start": 960
      },
      {
        "length": 32,
        "start": 1660
      },
      {
        "length": 32,
        "start": 1713
      },
      {
        "length": 32,
        "start": 1856
      },
      {
        "length": 32,
        "start": 2956
      },
      {
        "length": 32,
        "start": 3009
      },
      {
        "length": 32,
        "start": 3163
      },
      {
        "length": 32,
        "start": 3675
      }
    ]
  },
  "inputSourceName": "project/contracts/Presale.sol",
  "buildInfoId": "solc-0_8_28-9b277d9253080c1618a836b6544eaa746cc708ae"
}